:040000005AEF00F0C3
:0E0008002A82FACF12F0FBCF13F0CBEF00F0FC
:100018002A80D8CF01F0E8CF02F0E0CF03F0FACF82
:1000280004F0FBCF05F0E9CF06F0EACF07F0E1CF07
:1000380008F0E2CF09F0D9CF0AF0DACF0BF0F3CF0E
:100048000CF0F4CF0DF0F6CF0EF0F7CF0FF0F8CF9D
:1000580010F0F5CF11F09EA005D056EC01F0D58E2A
:10006800CD909E9011C0F5FF10C0F8FF0FC0F7FFAC
:100078000EC0F6FF0DC0F4FF0CC0F3FF0BC0DAFF93
:100088000AC0D9FF09C0E2FF08C0E1FF07C0EAFFC4
:1000980006C0E9FF05C0FBFF04C0FAFF03C0E0FF8C
:1000A80002C0E8FF01C0D8FF2A9010004DEF01F010
:1000B800720ED36ED3A4FED7000ED66EF28ED08EFB
:1000C800F28CF288D58ED59CD59AD596D580D582D6
:1000D800D584F28AF184CD80CD8ECD92300ECD12AA
:1000E8009D809F90000E8B6E000E8C6E080E946E95
:1000F800000E956E080E926E080EB86E000EB96E60
:100108000D0EC26E000EC16EAB0EC06E32EC01F069
:1001180020C026F021C027F027500CE1780E265C7D
:10012800D8B008D02850D8A405D0000E296ECD909C
:10013800D59E19D0275004E1A10E265CD8A005D081
:100148002828D8A402D0CD901CD0275004E1A10EB5
:10015800265CD8A00DD02850D8A40AD02950D8A4FD
:1001680007D0D59ECD80000ED76E000ED66E09D072
:10017800275007E1780E265CD8B003D02828D8B4D9
:10018800CD8028C020F0216A08EC01F0BFD7E9CF64
:1001980014F0EACF15F0E1CF16F0E2CF17F0D9CF7F
:1001A80018F0DACF19F0F3CF1AF0F4CF1BF0F6CF2E
:1001B8001CF0F7CF1DF0F8CF1EF0F5CF1FF0F2A41A
:1001C80005D0010E296E000E286EF2941FC0F5FFAF
:1001D8001EC0F8FF1DC0F7FF1CC0F6FF1BC0F4FFD0
:1001E8001AC0F3FF19C0DAFF18C0D9FF17C0E2FF21
:1001F80016C0E1FF15C0EAFF14C0E9FF13C0FBFFFA
:1002080012C0FAFF2A9211008BCF22F00F0E22168D
:1002180020C023F03C0E2316D8902336D8902334E0
:1002280022108B6E8CCF22F0830E221620C023F072
:10023800030E2316D8902336D890233620C024F0F6
:1002480021C025F0253425322432253425322432A4
:100258002450300B231022108C6E1200C282C2B2BE
:10026800FED7C3CF26F0276AC450272626C022F01F
:1002780027C023F0D89023322232D890233222325A
:1002880022C026F023C027F026C020F027C021F086
:100298001200296A286A276A266A2A902A92000187
:1002A8005CEF00F02850D8A402D028681200000E95
:0402B800286E12009A
:020000040020DA
:08000000FFFFFFFFFFFFFFFF00
:020000040030CA
:0E000000FFC80F3E3C1D81FF0FC00FE00F40F8
:00000001FF
