:04000000CBEF0EF044
:101D96000001F8EF0EF08BCF03F00F0E031601C013
:101DA60004F03C0E0416D8900436D8900434031080
:101DB6008B6E8CCF03F0830E031601C004F0030E66
:101DC6000416D8900436D890043601C005F002C037
:101DD60006F0063406320532063406320532055060
:101DE600300B041003108C6E1200000E0E6E000EE7
:101DF6000D6E000E0A6E000E096E000E0C6E000EC1
:101E06000B6E000E8B6E000E8C6E080E946E000E1E
:101E1600956E080E926E080EB86E000EB96E0D0E17
:101E2600C26E000EC16EAB0EC06EC282C2B2FED7CB
:101E3600C3CF0DF00E6AC4500E260DC007F00EC0BB
:101E460008F0D89008320732D8900832073207C017
:101E56000DF008C00EF00E5006E1640E0D5CD8B011
:101E660002D00A6864D00E5004E1640E0D5CD8A05E
:101E760008D00E5006E16E0E0D5CD8B002D07F0E73
:101E860055D00E5004E16E0E0D5CD8A008D00E5051
:101E960006E1780E0D5CD8B002D03F0E47D00E504A
:101EA60004E1780E0D5CD8A008D00E5006E1820E33
:101EB6000D5CD8B002D01F0E39D00E5004E1820E50
:101EC6000D5CD8A008D00E5006E18C0E0D5CD8B083
:101ED60002D00F0E2BD00E5004E18C0E0D5CD8A054
:101EE60008D00E5006E1960E0D5CD8B002D0070E53
:101EF6001DD00E5004E1960E0D5CD8A008D00E50F1
:101F060006E1A00E0D5CD8B002D0030E0FD00E5025
:101F160004E1A00E0D5CD8A008D00E5006E1AA0E72
:101F26000D5CD8B002D0010E01D0000E0A6E092A4F
:101F36000C50076E086A0D50075C0E500858D8A062
:101F46000AD00DC00CF00AC001F0026ACEEC0EF009
:101F5600000E096E6AD7640E0C6002D0800E39D06E
:101F6600630E0C6405D06E0E0C6002D0400E31D0AC
:101F76006D0E0C6405D0780E0C6002D0200E29D0B0
:101F8600770E0C6405D0820E0C6002D0100E21D0A4
:101F9600810E0C6405D08C0E0C6002D0080E19D090
:101FA6008B0E0C6405D0960E0C6002D0040E11D078
:101FB600950E0C6405D0A00E0C6002D0020E09D05E
:101FC6009F0E0C6405D0AA0E0C6002D0010E01D043
:101FD600000E0B6E050E096408D0D8900B300B6E00
:101FE6000C500A0F0C6E000E096E0A500B24016E7F
:0A1FF600026A0236CEEC0EF018D796
:020000040020DA
:08000000FFFFFFFFFFFFFFFF00
:020000040030CA
:0E000000FFCF0F3F3C9D85FF0FC00FE00F406C
:00000001FF
