:04000000BAEF0EF055
:101D5E009EAAFED7AE5012008B80030EE82EFED741
:101D6E0000F08B90120000EE34F0280EEE6AE806BA
:101D7E00FDE10001F3EF0EF0066E05B002D0899C76
:101D8E0001D0898C06380F0B0F0B9DEC0FF0060E51
:101D9E00E82EFED700D006500F0B9DEC0FF0210E53
:101DAE00E82EFED700F012000FD0010E056E07C010
:101DBE00D9FF08C0DAFFDF50C3EC0EF0074A082A3D
:101DCE00210EE82EFED700F007C0D9FF08C0DAFFBB
:101DDE00DF50D8B41200E9D7000E336E20EE34F087
:101DEE0010EE09F0270EDBCFE3FFE806FCE2000E53
:101DFE00326E010E316E945031C094FFF20ED36EDE
:101E0E00D3A4FED7CD0EAF6E000EB06EAA86AC84F4
:101E1E00AB88AB8EAC8AAC98AB9C3FEC0FF0AFECC2
:101E2E000EF0336E020E3318D8B413D0F8D7030E5B
:101E3E003318D8B40ED0AFEC0EF0336E3250010D15
:101E4E00090EF324D96E000EF420DA6E33C0DFFFD4
:101E5E00322A030E3318D8A4EAD7090E076E000EE5
:101E6E00086EDBEC0EF0000E336E000E326ED7D71E
:101E7E00929C94909492949495909592270E076EBE
:101E8E00F50EE82EFED7072EFCD700F0030E9DECC4
:101E9E000FF00D0E076EFC0EE82EFED7072EFCD7A8
:101EAE00030E9DEC0FF0850EE82EFED700F0030E0C
:101EBE009DEC0FF0210EE82EFED700F0020E9DECE9
:101ECE000FF0210EE82EFED700F0000E056E280E44
:101EDE00C3EC0EF0210EE82EFED700F0000E056EBC
:101EEE00080EC3EC0EF0210EE82EFED700F0000E09
:101EFE00056E010EC3EC0EF00D0E076EFC0EE82EF5
:101F0E00FED7072EFCD7000E056E060EC3EC0EF0A4
:101F1E00210EE82EFED700F0000E056E0C0EC3EC5F
:101F2E000EF0210EE82EFED700F01200046E0450C3
:101F3E00016E026A070ED89001360236E82EFBD7E4
:101F4E00070E036E023402320132032EFBD7014616
:101F5E008B500118FD0B01188B6E0450016E026A36
:101F6E00060ED89001360236E82EFBD7070E036E0A
:101F7E00023402320132032EFBD7014601468B504A
:101F8E000118FB0B01188B6E0450016E026A050ED0
:101F9E00D89001360236E82EFBD7070E036E0234B8
:101FAE0002320132032EFBD78C500118FE0B0118A2
:101FBE008C6E0450016E026A013A023AF00E02165D
:101FCE0001500F0B0212F00E0116070E036E0234B3
:101FDE0002320132032EFBD701468C500118FD0B45
:101FEE0001188C6EB3EC0EF0030EE82EFED700F047
:021FFE001200CF
:020000040020DA
:08000000FFFFFFFFFFFFFFFF00
:020000040030CA
:0E000000FFC80F3E3C9D85FF0FC00FE00F4074
:00000001FF
