:0400000093EF0DF07D
:101B26000001D4EF0EF001500302F3CF05F0F4CF1D
:101B360006F001500402F350062602500302F35049
:101B4600062605C001F006C002F01200000E7F6EE8
:101B5600800E7E6E6F0E6F6E000E6E6EC70E7B6E03
:101B6600000E7A6E000E796E000E786E000E776E9D
:101B7600000E766E120020EE01F01B50D9261C5086
:101B8600DA22000EDF6E20EE01F01D50D9261E501F
:101B9600DA22010EDF6E1BC016F01CC017F01DC046
:101BA60018F01EC019F05AEC0EF0120020EE01F0EB
:101BB6001B50D9261C50DA22010EDF6E20EE01F0F2
:101BC6001D50D9261E50DA22000EDF6E1BC016F0FD
:101BD6001CC017F01DC018F01EC019F05AEC0EF00C
:101BE6001200036E000E056E000E046E000E076EE8
:101BF600000E066E000E056E010E046E16D0000E67
:101C0600076E010E066E07500EE1150E065CD8B083
:101C16000AD0820E016EDE0EE82EFED7012EFCD70C
:101C2600064A072AF0D7044A052A0350016E026ABB
:101C36000450015C05500258D8A01200E0D728D005
:101C460016C0D9FF17C0DAFFDF50D8B405D016C0CA
:101C5600D9FF17C0DAFFDF0618C0D9FF19C0DAFFAF
:101C6600DF50D8B405D018C0D9FF19C0DAFFDF0697
:101C760016C00FF017C010F03FEC0FF018C00FF0B1
:101C860019C010F03FEC0FF0210EE82EFED700F041
:101C960016C0D9FF17C0DAFFDF50D8A4D1D718C0B5
:101CA600D9FF19C0DAFFDF50D8B41200C9D728D03F
:101CB60016C0D9FF17C0DAFF640EDF6005D016C064
:101CC600D9FF17C0DAFFDF2A18C0D9FF19C0DAFF1B
:101CD600640EDF6005D018C0D9FF19C0DAFFDF2A0D
:101CE60016C00FF017C010F03FEC0FF018C00FF041
:101CF60019C010F03FEC0FF0210EE82EFED700F0D1
:101D060016C0D9FF17C0DAFF630EDF64D1D718C03B
:101D1600D9FF19C0DAFF630EDF64CAD71200000EBE
:101D26000C6E0AAE06D0096C0A1ED8B00A2A010E3D
:101D36000C6E08AE06D0076C081ED8B0082A010E35
:101D46000C1A000E0E6E000E0D6E09500A10D8B455
:101D56001CD0010E0B6E04D0D89009360A360B2A19
:101D66000AAEFAD7D8900D360E360950075C0A50DF
:101D76000858D8A005D00950075E0A50085A0D80A9
:101D8600D8900A3209320B2EEDD70C50D8B404D0B5
:101D96000D6C0E1ED8B00E2A0DC007F00EC008F04E
:101DA6001200720ED36ED3A4FED79390939293949F
:101DB60093969286B8860D0EC26E000EC16EAB0E5D
:101DC600C06EA9EC0DF0000E1F6E010E206E790E8E
:101DD600216E0F0E226E780E236E0F0E246E000EED
:101DE600256E000E276EC70E266E000E286E010E9B
:101DF600296E770E2A6E0F0E2B6E760E2C6E0F0E38
:101E06002D6E020E2E6E000E306EC70E2F6E050E54
:101E1600F4EC0DF01F0E166E000E176E280E186EDF
:101E2600000E196E5AEC0EF0050EF4EC0DF01F0EB6
:101E3600166E000E176E280E186E000E196E22EC26
:101E46000EF0050EF4EC0DF01F0E1B6E000E1C6E50
:101E5600280E1D6E000E1E6EBEEC0DF0050EF4EC87
:101E66000DF01F0E1B6E000E1C6E280E1D6E000E52
:101E76001E6ED9EC0DF0CBD720EE01F00F50D9260F
:101E86001050DA22DF50D8B434D020EE07F00F50CD
:101E9600D9261050DA22DECF11F0DDCF12F00FC0B6
:101EA600D9FF10C0DAFFDF50136E1350016E026ABD
:101EB60020EE07F00F50D9261050DA22DECF03F0BD
:101EC600DDCF04F096EC0DF001C007F002C008F07B
:101ED600000E0A6E640E096E92EC0EF0071E081EC6
:101EE600074A082A11500724146E12500820156E4E
:101EF60023D00FC0D9FF10C0DAFFDF50116E11508A
:101F0600016E026A20EE07F00F50D9261050DA2231
:101F1600DECF03F0DDCF04F096EC0DF001C007F044
:101F260002C008F0000E0A6E640E096E92EC0EF006
:101F360007C014F008C015F014C011F015C012F057
:101F4600D89011361236D8901136123611C014F0C8
:101F560012C015F020EE02F00F50D9261050DA22EA
:101F6600DECF11F0DDCF12F011C0D9FF12C0DAFFBB
:101F760014C0DFFF20EE04F00F50D9261050DA22ED
:101F8600DECF11F0DDCF12F011C0D9FF12C0DAFF9B
:101F960015503F0BDF6E20EE01F00F50D926105082
:101FA600DA22DF50D8B414D020EE06F00F50D9262E
:101FB6001050DA22DF50116E010E126E112A02D075
:101FC600D8901236112EFCD712508A108A6E120043
:101FD60020EE06F00F50D9261050DA22DF50116E8F
:101FE600010E126E112A02D0D8901236112EFCD78D
:0A1FF6001250FF0A8A148A6E1200CE
:020000040020DA
:08000000FFFFFFFFFFFFFFFF00
:020000040030CA
:0E000000FFC80F3E3C9D85FF0FC00FE00F4074
:00000001FF
