:0400000061EF00F0BC
:100008002B82FACF01F0FBCF02F0E9CF03F0EACF61
:1000180004F0E1CF05F0E2CF06F0D9CF07F0DACF50
:1000280008F0F3CF09F0F4CF0AF0F6CF0BF0F7CFD2
:100038000CF0F8CF0DF0F5CF0EF0F2A220D0000EA4
:100048000F6E000E106E000E82B6010E0F6E210E9E
:10005800E82EFED700F0000E82B6010E106E0F508B
:1000680010140009D8B40AD0010E0101A96F2A5052
:10007800D8A402D0010E01D0000E2A6EF2920EC052
:10008800F5FF0DC0F8FF0CC0F7FF0BC0F6FF0AC064
:10009800F4FF09C0F3FF08C0DAFF07C0D9FF06C0A4
:1000A800E2FF05C0E1FF04C0EAFF03C0E9FF02C0A8
:0E00B800FBFF01C0FAFF2B9211008FEF06F044
:1003000000202020202020203C20202020202020F1
:1003100020202020203C2020202020203C202020A5
:1003200020203C20202020200020202020202020D1
:1003300020202020202020203C20202020202020A1
:10034000203C20202020203C20202020203C3C203D
:1003500000507265737320746F203C285E2E5E3CE3
:100360002900507265737320746F20283E5E2E5EE4
:10037000293E00507265737320746F205E285E2ED4
:100380005E295E002020285E2E5E292020205374E6
:100390006172740020283E5E2E5E3C29202053743A
:1003A00061727400203C285E2E5E293E202053742A
:1003B00061727400596F7520446965642100596F3A
:1003C0007520576F6E210044004F0000000E0101A0
:1003D000A66F000E0101A16F000EA06F000E0101BB
:1003E000A36F000EA26F000E0101A56F000EA46F97
:1003F000000E0101A86F000E0101A76F000ED66E5E
:10040000720ED36ED3A4FED7000E8B6E000E8C6ED0
:100410009286B886080E946E000E956EF28EF28863
:100420000D0EC26E000EC16EAB0EC06E55EC04F028
:10043000CFD0010E5FEC06F0780E116E010E126E39
:10044000620E136E030E146E22EC06F0000E156E93
:10045000020E77EC06F0060E296E300EE82EFED75F
:10046000292EFCD700D0780E176E010E186ECBEC3B
:1004700005F0020E5FEC06F0780E116E010E126EA2
:10048000A40E136E030E146E22EC06F0780E176E97
:10049000010E186ECBEC05F0010E0101A86F0E0ED7
:1004A0000101A86501D00AD0820E296EDE0EE82E69
:1004B000FED7292EFCD70101A82BF1D7010E5FEC46
:1004C00006F0780E116E010E126E730E136E030E8F
:1004D000146E22EC06F0000E156E020E77EC06F09C
:1004E000060E296E300EE82EFED7292EFCD700D03E
:1004F000780E176E010E186ECBEC05F0020E5FEC55
:1005000006F0780E116E010E126E840E136E030E3D
:10051000146E22EC06F0780E176E010E186ECBECFE
:1005200005F0010E0101A86F0E0E0101A86501D0B2
:100530000AD0820E296EDE0EE82EFED7292EFCD7B9
:100540000101A82BF1D7010E5FEC06F0780E116EB9
:10055000010E126E510E136E030E146E22EC06F095
:10056000000E156E020E77EC06F0060E296E300EA8
:10057000E82EFED7292EFCD700D0780E176E010E7C
:10058000186ECBEC05F0020E5FEC06F0780E116EE3
:10059000010E126E940E136E030E146E22EC06F012
:1005A000780E176E010E186ECBEC05F0010E0101EE
:1005B000A86F0E0E0101A86501D00AD0820E296E27
:1005C000DE0EE82EFED7292EFCD70101A82BF1D78D
:1005D0000101A951D8B42DD7000E156E010E77EC8C
:1005E00006F0210EE82EFED700F0000E156E020E6A
:1005F00077EC06F0060E296E300EE82EFED7292E77
:10060000FCD700D0280E116E010E126E290E136E4B
:10061000030E146E22EC06F0500E116E010E126ED7
:10062000010E136E030E146E22EC06F0000E116E16
:10063000010E126EC90E136E030E146E22EC06F03C
:100640000101A951D8B4C4D7000E0101A76F270E2C
:100650000101A76501D0F2D02A50D8B40ED0C70E40
:10066000116E030E126E280E136E010E146EFAEC4C
:1006700005F011500101286F0DD0C70E116E030E49
:10068000126E500E136E010E146EFAEC05F011503E
:100690000101506F010E5FEC06F0280E176E010E7F
:1006A000186ECBEC05F0020E5FEC06F0500E176EE4
:1006B000010E186ECBEC05F0280E1D6E010E1E6E9D
:1006C000000E206E000E1F6E000E226E010E216EB7
:1006D0001CEC05F0500E1D6E010E1E6E000E206EFD
:1006E000000E1F6E000E226E010E216E1CEC05F036
:1006F000010E0101A86F090E0101A86501D00AD001
:10070000820E296EDE0EE82EFED7292EFCD70101BF
:10071000A82BF1D72A50D8B447D00F0E0101A71942
:10072000D8B414D0180E0101A719D8B40FD01E0EDA
:100730000101A719D8B40AD0240E0101A719D8B411
:1007400005D0250E0101A719D8A475D0000E156E8D
:10075000010E77EC06F0210EE82EFED700F0000E19
:10076000156E020E77EC06F0060E296E300EE82E9E
:10077000FED7292EFCD700D0B40E176E030E186ECC
:10078000CBEC05F0010E0101A86F310E0101A86547
:1007900001D054D0820E296EDE0EE82EFED7292E0F
:1007A000FCD70101A82BF1D7070E0101A719D8B476
:1007B00014D0140E0101A719D8B40FD0200E0101D6
:1007C000A719D8B40AD01B0E0101A719D8B405D0B7
:1007D000210E0101A719D8A42ED0000E156E010E0E
:1007E00077EC06F0210EE82EFED700F0000E156E15
:1007F000020E77EC06F0060E296E300EE82EFED7BC
:10080000292EFCD700D0B40E176E030E186ECBEC59
:1008100005F0010E0101A86F310E0101A86501D09C
:100820000DD0820E296EDE0EE82EFED7292EFCD7C3
:100830000101A82BF1D70101A72B09D7280E01012F
:10084000A719D8A42ED0000E156E010E77EC06F075
:10085000210EE82EFED700F0000E156E020E77EC8A
:1008600006F0060E296E300EE82EFED7292EFCD794
:1008700000D0BE0E176E030E186ECBEC05F0010E05
:100880000101A86F310E0101A86501D00AD0820EC6
:10089000296EDE0EE82EFED7292EFCD70101A82BEB
:1008A000F1D7000E0101A96F93D6000E896E000EDC
:1008B0008B6E000E8C6E929C949094929494959072
:1008C0009592270E176EF50EE82EFED7172EFCD741
:1008D00000F0030EB9EC04F00D0E176EFC0EE82EBE
:1008E000FED7172EFCD7030EB9EC04F0850EE82EC8
:1008F000FED700F0030EB9EC04F0210EE82EFED76F
:1009000000F0020EB9EC04F0210EE82EFED700F044
:10091000000E156E280E77EC06F0210EE82EFED79D
:1009200000F0000E156E080E77EC06F0210EE82E92
:10093000FED700F0000E156E010E77EC06F00D0EDE
:10094000176EFC0EE82EFED7172EFCD7000E156E84
:10095000060E77EC06F0210EE82EFED700F0000E12
:10096000156E0C0E77EC06F0210EE82EFED700F087
:100970001200146E1450116E126A070ED8901136C0
:100980001236E82EFBD7070E136E123412321132D4
:10099000132EFBD711468B501118FD0B11188B6EBF
:1009A0001450116E126A060ED89011361236E82EC7
:1009B000FBD7070E136E123412321132132EFBD7EF
:1009C000114611468B501118FB0B11188B6E1450E9
:1009D000116E126A050ED89011361236E82EFBD72A
:1009E000070E136E123412321132132EFBD78C50B5
:1009F0001118FE0B11188C6E1450116E126A113AF8
:100A0000123AF00E121611500F0B1212F00E1116B0
:100A1000070E136E123412321132132EFBD7114609
:100A20008C501118FD0B11188C6E99EC06F0030E0A
:100A3000E82EFED700F012001DC011F01EC012F00B
:100A400042EC06F011C027F012C028F022AE0ED002
:100A50001FC023F020C024F0231E241E234A242A72
:100A600027502324216E28502420226E21501F2439
:100A7000236E22502020246E2350275C2850800AA9
:100A8000256E2450800A2558D8B00ED01FC023F000
:100A900020C024F0231E241E234A242A2750232466
:100AA000216E28502420226E1F501D24116E2050CC
:100AB0001E20126E1F501D24236E20501E20246EF7
:100AC00021502324136E22502420146E21C025F0BF
:100AD00022C026F0251E261E254A262A2750252616
:100AE00028502622010E2524156E000E2620166E93
:100AF0007BEC05F0120013C01BF014C01CF011C0F9
:100B000019F012C01AF019501B5C1A501C58D8B0BA
:100B10002CD015501B24176E16501C20186E175021
:100B2000195C18501A58D8B020D015501B261650F2
:100B30001C221550192616501A221B06D8A01C0676
:100B40001BC0D9FF1CC0DAFF1906D8A01A0619C0AD
:100B5000E1FF1AC0E2FFDFCFE7FF1506D8A01606B7
:100B600015501610D8B41200E8D715501610D8B486
:100B700012001BC0D9FF1CC0DAFF19C0E1FF1AC068
:100B8000E2FFDFCFE7FF1B4A1C2A194A1A2A150683
:100B9000D8A01606EAD71AD0010E156E17C0F6FFB8
:100BA00018C0F7FFF86A020EF76403D00800F5508A
:100BB00005D0F6CFE1FFF7CFE2FFE75077EC06F084
:100BC000174A182A210EE82EFED700F017C0F6FFAC
:100BD00018C0F7FFF86A020EF76403D00800F5505A
:100BE00005D0F6CFE1FFF7CFE2FFE7500009D8B418
:100BF0001200D2D711C015F012C016F002D0154A5B
:100C0000162A15C0F6FF16C0F7FF0800F5500009B8
:100C1000D8B405D0F4D7154A162A134A142A15C099
:100C2000F6FF16C0F7FF13C0D9FF14C0DAFFDF507C
:100C3000F56E0C00F650D8A4EED711C011F012C01A
:100C400012F01200150E156E000E166E08D011C0AF
:100C5000D9FF12C0DAFF17C0DFFF114A122A13C0F2
:100C6000F6FF14C0F7FF134A142A0800F5CF17F057
:100C70001750D8A4ECD711C0D9FF12C0DAFF000E6C
:100C8000DF6E120011C015F012C016F002D0154A26
:100C9000162A15C0D9FF16C0DAFFDF50D8A4F7D73F
:100CA00011C013F012C014F0131E141E134A142A9C
:100CB00015501324116E16501420126E1200176E68
:100CC0001704D8A406D0000E156E800E77EC06F03F
:100CD00009D0020E1718D8A405D0000E156EC00E4C
:100CE00077EC06F0210EE82EFED700F01200166E0B
:100CF00015B002D0899C01D0898C16380F0B0F0BD0
:100D0000B9EC04F0060EE82EFED700D016500F0BFB
:100D1000B9EC04F0210EE82EFED700F0120001011C
:100D2000A96B2A6A2B902B92000EF86E0001E6EF59
:100D300001F08B80030EE82EFED700F08B9012009E
:020000040020DA
:08000000FFFFFFFFFFFFFFFF00
:020000040030CA
:0E000000FFC80F3E3C1D81FF0FC00FE00F40F8
:00000001FF
